:100000000C94DA020C9421030C9421030C94210328
:100010000C9421030C9421030C9421030C942103D0
:100020000C9421030C9421030C9485290C94572AD9
:100030000C948C200C9421030C9421030C94210328
:100040000C9421030C9421030C9421030C942103A0
:100050000C9421030C94F4200C9421030C942103A0
:100060000C9421030C9421030C9421030C94210380
:100070000C9421030C9421030C9421030C94210370
:100080000C9421030C9421030C9421030C94210360
:100090000C9421030C9421030C9421030C94210350
:1000A0000C9421030C9421030C942103D615D6152E
:1000B0000816081655167516FA17FA17B7165417B4
:1000C00065176517C617CF17FA17F3177C187C1832
:1000D0008E188E1885188E188E188E187C187C181D
:1000E0008A188E188E188A18C42AEB2ADD2BEB2A60
:1000F000DD2B372B5A2BDD2BB02BBF2B165C1E00B4
:100100001F002000210022002300240025002600DB
:1001100027002D002E0000002A002B0000001400F4
:100120001A000800150017001C0018000C0012002F
:1001300013002F00300031003900000004001600C9
:10014000070009000A000B000D000E000F0033002D
:10015000340028000000E10000001D001B00060024
:1001600019000500110010003600370038000000AB
:1001700052000000E000E2000000E3000000000088
:100180002C00000000000000015150000000510050
:100190004F0035003A003B003C003D003E003F0070
:1001A00040004100420043004400450000004C0074
:1001B00000000000CD5CCF5CC65CC55CC85CC75C61
:1001C000CA5CC95C000000000000000000000000E4
:1001D0000000BF5CC05CBD5CBE5C000000000000B5
:1001E000000000000000000000000000000000000F
:1001F00000000000000000000000000000000000FF
:1002000000000000000000000000000000000000EE
:1002100000000000000000000000000000000000DE
:10022000000000000000000000047F3F1F64321443
:10023000643214783C1E1E140A0522232526282920
:100240002A2C2D2F3032333536383A3B3D3E404252
:10025000434547494A4C4E5051535557595A5C5E95
:100260006062646668696B6D6F71737577797B7DA9
:100270007F81838587898A8C8E90929496989A9CA8
:100280009E9FA1A3A5A7A8AAACAEAFB1B3B4B6B8C0
:10029000B9BBBCBEBFC1C2C3C5C6C7C9CACBCCCD22
:1002A000CED0D1D2D2D3D4D5D6D7D7D8D9D9DADAFD
:1002B000DBDBDBDCDCDCDCDCDDDDDDDDDCDCDCDC7D
:1002C000DCDBDBDBDADAD9D9D8D7D7D6D5D4D3D2B1
:1002D000D2D1D0CECDCCCBCAC9C7C6C5C3C2C1BF8F
:1002E000BEBCBBB9B8B6B4B3B1AFAEACAAA8A7A5F3
:1002F000A3A19F9E9C9A98969492908E8C8A8987AF
:100300008583817F7D7B79777573716F6D6B69688C
:10031000666462605E5C5A5957555351504E4C4A60
:100320004947454342403E3D3B3A3836353332300B
:100330002F2D2C2A292826252322FFAA7F5540006D
:100340000101010101010101010202020202020296
:100350000202030303030303030304040404040469
:10036000040505050505060606060607070707072F
:1003700008080808090909090A0A0A0B0B0B0C0CE2
:100380000C0D0D0D0E0E0E0F0F0F1010111111127E
:100390001213131414151516161717181819191AFD
:1003A0001A1B1B1C1D1D1E1E1F2020212222232460
:1003B00024252626272829292A2B2C2D2D2E2F309F
:1003C000313232333435363738393A3B3C3D3E3FB3
:1003D000404142434445464748494A4C4D4E4F50A0
:1003E000515354555658595A5B5D5E5F616264655E
:1003F0006668696B6C6D6F7072737577787A7B7DE8
:100400007E8082838587888A8C8E8F91939596983B
:100410009A9C9EA0A2A3A5A7A9ABADAFB1B3B5B757
:10042000BABCBEC0C2C4C6C9CBCDCFD1D4D6D8DB2E
:10043000DDDFE2E4E7E9EBEEF0F3F5F8FAFDFF04C7
:1004400003300000000A0344005A00360030000068
:100450000010034B0042004400460061006E007330
:100460000000000403090409023B00020100A0FA95
:10047000090400000103010100092111010001220A
:1004800040000705810308000A0904010001030078
:10049000000009211101000122C00007058203208C
:1004A000000A1201100100000008EDFE60220100A8
:1004B0000102030105010902A10185020901A10050
:1004C0000509190129051500250195057501810208
:1004D0009501750381010501093009311581257FD9
:1004E00095027508810609381581257F95017508E3
:1004F0008106050C0A38021581257F950175088152
:1005000006C0C005010980A10185031A81002A8364
:1005100000160100260300950175108100C0050C2E
:100520000901A10185041A01002A9C021601002676
:100530009C02950175108100C005010906A1018585
:1005400005050719E029E7150025019508750181C2
:10055000020507190029EF1500250195F0750181A5
:100560000205081901290595057501910295017586
:10057000039101C005010906A101050719E029E75A
:100580001500250195087501810295017508810105
:100590000507190029FF150026FF0095067508813B
:1005A0000005081901290595057501910295017548
:1005B000039101C011241FBECFEFDAE0DEBFCDBF33
:1005C00004B603FE27C08091AA029091AB02A091CD
:1005D000AC02B091AD028730904BA740B04BD1F444
:1005E0001092AA021092AB021092AC021092AD02CD
:1005F00014BE84B7877F84BF0FB6F894A895809106
:100600006000886180936000109260000FBEE0E09F
:10061000F8E3099511E0A0E0B1E0E4ECF9E502C0EF
:1006200005900D92AC35B107D9F722E0ACE5B1E009
:1006300001C01D92AA3AB207E1F70E94A7260C94C6
:10064000E02C0C9400000C944C09229A2A9A0895EC
:100650000E944B090C94250381FF02C02A9801C017
:100660002A9A0C947F0381E0089581E008950C9408
:1006700035031F93CF93DF9300D000D01F92CDB7E7
:10068000DEB749835A832091960189819A8121118D
:1006900012C0662349F00E94A11D182F682F89817E
:1006A0009A810E94461D03C00E94751D182F698102
:1006B0007A81812F04C00E94A11D69817A810F90E7
:1006C0000F900F900F900F90DF91CF911F910C948E
:1006D0006906FC01408151816281738184810C949F
:1006E00039030E94D11E811102C00E94841F0E9402
:1006F0008F110C9428030E948E110C9423030895EB
:1007000081E008950C948003CF93C82F0E942C039E
:100710008C2F0E948203CF91089508950E946C1837
:100720000E948D032FEF84E39CE021508040904095
:10073000E1F700C000000C941A210F931F93CF9390
:10074000DF938C010E946903EC01B8010E9437031A
:10075000882309F4B4C2B801CE010E944312882351
:1007600009F4ADC2CB3CFCE5DF0741F4F80182811E
:10077000882309F4A4C20E94610BA1C2CC3C8CE581
:10078000D80708F0D7C1C33C9CE5D90761F4F8014C
:100790008281882309F493C20E94211E8272F1F0A3
:1007A0000E94570F8CC2C43CECE5DE07D0F0F80184
:1007B0008281C73CFCE5DF0709F491C108F0A1C1C3
:1007C000C53CECE5DE0709F490C108F094C188232C
:1007D00009F475C20E94211E827211F30E944A0F11
:1007E0006EC2C631FCE5DF0708F042C1C2308CE5BD
:1007F000D80708F419C1F8018281882309F41BC1C4
:100800000E94D11E811102C00E94841F0E94EE1E10
:1008100090939C0280939B02C031FCE5DF0709F4B2
:10082000C3C008F041C0C8309CE5D90709F49AC09C
:10083000F0F4C430FCE5DF0709F487C068F4C23087
:100840009CE5D90709F477C0C330DC4509F0E3C063
:1008500080919B02826076C0C630FCE5DF0709F418
:100860006EC008F07BC080919B0288606BC0CC306A
:100870009CE5D90709F485C068F4CA30FCE5DF07B8
:1008800009F474C008F079C00E946C1880919B0232
:10089000806858C0CE309CE5D90709F476C008F0CE
:1008A0007FC080919B028BC0CB3FFCE5DF0709F442
:1008B0004FC018F5C3319CE5D90709F47DC078F421
:1008C000C131FCE5DF0709F473C0C231DC4509F032
:1008D000A2C00E946C1880919B028F7733C0C531F3
:1008E0009CE5D90709F472C008F486C0CA3FDC450C
:1008F00009F091C080919C023EC0CF3F8CE5D807A3
:1009000009F45FC058F4CD3FECE5DE0709F444C0BC
:1009100008F43FC080919C0282602DC0C1308DE5FB
:10092000D80709F475C008F45DC0C230DD4509F090
:1009300072C080E06EC080919B02816003C0809194
:100940009B02806180939B0266C080919B0211C0D4
:1009500080919C02826080939C025DC080919B028A
:100960008062F0CF80919B028064ECCF80919B02EB
:1009700088608460E7CF8160EECF80919B028E7F9C
:10098000E1CF80919B028D7FDDCF80919B02877F9D
:10099000D9CF80919C0218C080919C028D7FDBCFC3
:1009A00080919B028F7ECECF80919B028F7DCACF9C
:1009B00080919B028F7BC6CF80919B02877F8B7F2C
:1009C000C1CF80919C028D7F8E7FC5CF80919B028D
:1009D00082FB222720F991E0922790FB82F990FB7D
:1009E00083F9B0CF80919C02982F909591708E7F63
:1009F000892B90FB81F9AFCF0E946C1880919B02EC
:100A000087FB222720F991E0922790FB87F99ACF64
:100A100081E00E94861F80919B0290919C020E941F
:100A2000FF1E0E946C184BC1C1159CE5D90751F0FF
:100A3000C130DC4579F0C801DF91CF911F910F9152
:100A40000C943303F8018281882309F438C10E9491
:100A50008E0335C1F8018281882309F430C1809169
:100A60002E02982F909590FB80F980932E0227C13B
:100A7000C631FCE5DF0739F50E94211E282FF80159
:100A800082814091100150911101882379F02A7AD6
:100A900091E009F490E090935C01911102C069E249
:100AA00001C065E3CA010E94F01F0AC080915C0189
:100AB000811102C069E201C065E3CA010E94FB1F07
:100AC0000E946D1EFCC0C23CDC4509F0B4CFF801A9
:100AD0008281882309F4F3C00E94650FF0C0882347
:100AE00009F4EDC00E94FA0CEAC0882309F4E7C0BB
:100AF0000E94DE0CE4C0882309F4E1C00E94EB0CE4
:100B0000DEC0C93C9CE5D90731F4882309F4D7C07D
:100B10000E94180DD4C0CA3CDC4530F4882309F487
:100B2000CEC00E94090DCBC0882309F4C8C00E9422
:100B3000270DC5C0C33DFCE5DF0749F4F8018281FC
:100B4000882309F4BCC088E10E945A0FB8C0C43D94
:100B50008CE5D80708F069C0F8018281CF3CFCE53C
:100B6000DF0771F4882309F4AAC00E94590B86306C
:100B700028F00E94590B883008F430CE86E0E4CF8C
:100B8000C03D9CE5D90700F5CD3CECE5DE0729F436
:100B9000882309F494C081E0D7CFCE3CDC4530F403
:100BA000882309F48CC00E94720B89C0882309F441
:100BB00086C00E94590B823028F00E94590B853064
:100BC00008F40CCE82E0C0CFC13D9CE5D90771F49A
:100BD000882309F474C00E94590B8F3028F00E94BA
:100BE000590B843108F4FACD8FE0AECFC23DDC451D
:100BF00070F4882309F463C00E94590B893028F0EF
:100C00000E94590B8E3008F4E9CD89E09DCF8823EE
:100C100009F455C00E94590B853128F00E94590BE8
:100C2000873108F4DBCD85E18FCFCD3DFCE5DF07D3
:100C300049F4F8018281882309F441C082E00E94CE
:100C400048273DC0CE3D8CE5D80738F5C53D9CE52D
:100C5000D90731F4F8018281882389F183E274CFC6
:100C6000C53DECE5DE0778F4F8018281882339F18F
:100C70000E94590B893128F00E94590B823208F4E6
:100C8000ADCD89E161CFCC3DDC4509F0D4CEF80192
:100C900082818823A1F080E0D2CFCE3D8CE5D807B9
:100CA00039F4F8018281882351F00E94841F07C023
:100CB000CE018A5F9C45099708F49DCDBCCE80E0AB
:100CC000DF91CF911F910F91089580E090E00895FA
:100CD00008959FE0799FF00111249BE4899FE00D26
:100CE000F11D1124E60FF11DEE0FFF1FE450FF4F21
:100CF000859194910895880F991FFC01E85DFD4F3F
:100D0000859194910895CF93DF930E9469060E9484
:100D10007408EC01811521E5920708F042C08115A5
:100D200060E5960708F02FC1883E910500F5803EEA
:100D3000910508F0D5C1883A910570F4853A91057E
:100D400008F0A4C08130910509F4CAC108F47BC140
:100D5000049708F0C5C177C18F3B910508F4A1C085
:100D6000803C910508F46FC1805C9109FBC0C115FE
:100D700080E3D80780F4C11590E2D90708F0F0C0ED
:100D8000C03FD10508F45FC1CF3FD10511F008F095
:100D9000A7C1D065A5C1C11520E4D20708F0F0C0F5
:100DA000E5C0811569E5960760F5C11588E5D807A6
:100DB00008F035C1C11594E5D90778F4C11523E5CC
:100DC000D20708F011C1C11562E5D60708F0F6C0D8
:100DD000DC2FCC27C16FD06A83C1C11585E5D80748
:100DE00008F418C1C11596E5D90708F02CC18C2F5D
:100DF0000E9408098F71C82FD0E0DC2FCC27D06269
:100E00006FC18D3B2CE5920709F414C1E0F4CB3B94
:100E10008CE5D80709F408C108F009C1C1152AE515
:100E2000D20708F010C18C2F8F700E94080994E03F
:100E3000D695C7959A95E1F7CF70D0E0DC2FCC27F7
:100E4000D069C82B4DC1803C9C4509F4F9C0C13C18
:100E50008CE5D80760F4CE3B9CE5D90709F4EDC0DA
:100E6000CF3BDC4509F0EFC0C0E0D2ED39C1CE0187
:100E700090568115904208F0E6C08D2F8F710E9428
:100E80000809DD27D0628F71D82B2AC1853A9105D8
:100E900009F4DCC0863A910509F0DBC0C2E8D0E471
:100EA0001FC1883A910509F4D7C0893A910509F420
:100EB000D6C08A3A910509F4D5C08B3A910509F458
:100EC000D4C08C3A910509F4D3C08B3B910509F449
:100ED000D2C08C3B910509F4D1C08D3A910509F43B
:100EE000D0C0803B910509F4CFC08E3A910509F43A
:100EF000CEC08F3A910509F4CDC0813B910509F42C
:100F0000CCC0823B910509F4CBC0833B910509F429
:100F1000CAC0843B910509F4C9C0853B910509F419
:100F2000C8C0863B910509F4C7C0873B910509F409
:100F3000C6C0883B910509F4C5C0893B910509F4F9
:100F4000C4C08D3B910509F4C3C08E3B910509F4E3
:100F5000C2C08A3B910509F4C1C0C0E0D4E4C0C05E
:100F6000CE019F700E947B06EC01BAC0CE0199278A
:100F7000D3FF03C0EC01D86CB3C0EC01D06CB0C09F
:100F8000DF70D06AADC0837021E030E002C0220F74
:100F9000331F8A95E2F73C68CE0174E096958795F9
:100FA0007A95E1F78370382BCF70C695C69580E2AD
:100FB000C89FE0011124C22BD32B92C04C2F469521
:100FC000469590E2499FA0011124C370DD2721E0DE
:100FD00030E0C90102C0880F991FCA95E2F7EC0101
:100FE000C42BD52BDC687CC04C2F4695469580E2FF
:100FF000489FA0011124C370DD2721E030E0C90122
:1010000002C0880F991FCA95E2F7EC01C42BD52BBB
:10101000DA6866C0DC2FCC27C46FD06A61C0DC2FD1
:10102000CC27C06FD06A5CC0C0E0D4ED59C0C0E02E
:10103000D5ED56C0C0E0D1ED53C0C0E0D0ED50C0FA
:10104000C0E0D3ED4DC0C0E0D0E04AC0C1E8D0E47C
:1010500047C0C3E8D0E444C0C2EED4E441C0C9EE06
:10106000D4E43EC0CAEED4E43BC0C5EBD4E438C0FF
:10107000C6EBD4E435C0C3EBD4E432C0C4EBD4E453
:101080002FC0C7EBD4E42CC0CCECD4E429C0CDEC09
:10109000D4E426C0C3E8D5E423C0CAE8D5E420C020
:1010A000C2E9D5E41DC0C4E9D5E41AC0C1E2D6E462
:1010B00017C0C3E2D6E414C0C4E2D6E411C0C5E24E
:1010C000D6E40EC0C6E2D6E40BC0C7E2D6E408C040
:1010D000CFE6D4E405C0C0E7D4E402C0CAE2D6E457
:1010E000CE01DF91CF9108958238910569F1B0F476
:1010F0008133910509F46DC048F48932910509F4F2
:1011000063C08A32910509F469C008958533910559
:1011100009F455C089339105B9F00895833E9105CE
:1011200069F138F4803E9105B1F0823E910509F1F4
:101130000895863E9105A9F1873E9105B9F1843E57
:10114000910509F064C023C020919B0220FD4FC08F
:1011500021FD4DC0089580919B0280FD44C0809187
:101160009C0280FF44C080919B0284FD42C083EEBC
:101170004DC080919B0282FF38C0F5CF80919B02C9
:1011800082FD33C080919C0280FD31C0ECCF809104
:101190009C0281FF32C080919B0284FD2AC087EEB1
:1011A00035C080919B0283FF26C0F5CF80919B02C2
:1011B00083FD21C080919C0281FD1FC0ECCF8091F6
:1011C0009B0285FD1CC01DC080919B0285FD19C03E
:1011D00016C080919B0286FD16C017C080919B02AD
:1011E00086FD13C010C089E311C082EE0FC080EEEF
:1011F0000DC080E00BC086EE09C084EE07C089E216
:1012000005C085E303C08AE201C081E390E0089550
:1012100090919B0292FF0DC0282F2871283019F45D
:10122000877F846006C0282F2471243011F48B7FBF
:10123000886093FF0DC0282F2871283119F4877E0C
:10124000846106C0282F2471243111F48B7E8861BB
:1012500020919C0220FF0DC0382F3871383019F4CE
:10126000877F816006C0382F3171313011F48E7F55
:10127000886021FF0DC0282F2871283119F4877E3E
:10128000816106C0282F2171213111F48E7E886181
:1012900094FD877E089508950895E82FF0E0EE0FFD
:1012A000FF1FE35AFE4F8081918108950895A2E3C4
:1012B000B1E041E050E025E02A0F8D91E82FE29562
:1012C000EF70F0E031A18F70BA0102C0660F771F96
:1012D0008A95E2F7CB01962F9095932391A392A143
:1012E000892B82A32A13E9CFA3E2B1E041E050E0C9
:1012F0002FE02A0F8D91E82FE295EF70F0E031A1F9
:101300008F70BA0102C0660F771F8A95E2F7CB0192
:10131000962F9095932391A392A1892B82A32A13B0
:10132000E9CFE7E6F1E0ADE5B1E0119211921D924F
:101330001D9271E0E137F707C1F785E00E94390A95
:101340000C9471035F926F927F928F929F92AF92F3
:10135000BF92CF92DF92EF92FF920F931F93CF93A2
:10136000DF9302E311E0A7E6B1E0612CEE24E39401
:10137000F12C5D018D909C90119711961C921E92FC
:10138000E80189918E01E82FE295EF70F0E091A1DC
:101390008F70A70101C0440F8A95EAF7892F842B2B
:1013A00081A382A1542E5094852182A3D0EADA959C
:1013B000F1F783E2C82E81E0D82E80E090E0E601CC
:1013C00079906E01272D22952F7030E0E90168A1F8
:1013D0002D913C91119770E0D72DDF7002C075956B
:1013E0006795DA95E2F760FD08C0B701082E02C0E4
:1013F000660F771F0A94E2F702C060E070E0262BC8
:10140000372B11963C932E9301968F309105B9F6A8
:1014100081A1D52DD823D1A382A1482B42A3129616
:1014200081E0F501208131818216930609F480E084
:10143000682AF1E0A137BF0709F09BCF262D45E0D0
:101440006DE571E087E691E00E943A0A0E947B0315
:10145000862DDF91CF911F910F91FF90EF90DF903C
:10146000CF90BF90AF909F908F907F906F905F9044
:1014700008950895FF920F931F93CF93DF93F82E53
:10148000092F162FD72FC42F222349F081E08093F4
:1014900073010E94BE20909372018093710180912C
:1014A00073018823D9F080917101909172010E949B
:1014B000CA20069798F0EF2DF02FA12FBD2F80E0C6
:1014C00090E04C2F50E08417950734F4219131912E
:1014D0002D933D930196F7CF10927301DF91CF9139
:1014E0001F910F91FF900895AF92BF92CF92DF921C
:1014F000FF920F931F93CF93DF93D62E372FE82FB2
:10150000F0E0711106C0E15CFC4F6491762F862FEC
:1015100075C0C72FD0E0E15CFC4F2491F22E022F62
:1015200010E046E0649FC0011124EFEFF0E0BF013E
:101530000E94212CAB016BEA6403C001659F900DF2
:1015400011248D0D911D8D0D911D982F990F890FCF
:10155000DF01AC1BBD0B0A9FB0010B9F700D1A9FE2
:10156000700D1124972F839FD0011124AB2FBB271F
:101570006F01CA1ADB0A0C9DD0010D9DB00D1C9D98
:10158000B00D11245F01A81AB108AC9E6001AD9E98
:10159000D00CBC9ED00C1124CD2DDD27EC1BFD0BF7
:1015A0000E9FE0010F9FD00D1E9FD00D1124ED2F37
:1015B0004230510591F04CF441155105E1F04130B4
:1015C0005105B9F4E22F2B2F16C04430510569F0B4
:1015D00044F04630510579F00CC0E22F272F9D2FA3
:1015E0000AC0272F9F2DEB2F06C0E72F922F2D2FFC
:1015F00002C0E72F9B2F6E2F722F892FDF91CF9183
:101600001F910F91FF90DF90CF90BF90AF90089502
:101610000895CF93DF93762FE901682F842F0E94DE
:10162000740A798368838A83DF91CF9108958091CA
:101630005F02282F269530E02115310519F48170BD
:10164000826005C02532310524F081708864809362
:101650005F02089588E090E00C94A02CCF93DF9374
:1016600000D000D0CDB7DEB7AB01BC0149835A83AF
:101670006B837C830E94170B49815A816B817C812B
:1016800088E090E00F900F900F900F90DF91CF9136
:101690000C94BE2CEFE5F2E083E0808311828FEFA3
:1016A00082838383148260817181828193810C940F
:1016B0002E0B80915F0280FF02C08695089580E026
:1016C000089580916302833018F48F5F80936302E2
:1016D00060915F027091600280916102909162025C
:1016E0000C942E0B80916302882319F08150809313
:1016F000630260915F02709160028091610290913B
:1017000062020C942E0B6091040170E080915F02E4
:1017100080FF0AC08091780123E0829FC0011124DC
:101720008C599D4F0C94D3118091770190910301B6
:10173000891780F7E82FF0E09F01220F331FE20F97
:10174000F31FEC59FD4F1182108212828F5FF0CF90
:1017500090915F0290FF16C0909177012091030154
:10176000921770F4E92FF0E0DF01AA0FBB1FEA0F18
:10177000FB1FEC59FD4F8183608342839F5FF0CF55
:101780000C94830B0895CF93DF9300D01F92CDB7B5
:10179000DEB790915F0290FF0AC09E012F5F3F4F1E
:1017A0000E94090B4B8169818A810E94A80B0F90CE
:1017B0000F900F90DF91CF910895CF93DF93EC01BD
:1017C000EC81F0E0E65CFD4F4491EFE5F2E06281F0
:1017D00081810E94C30B8C818F5F8C83DF91CF91BD
:1017E0000895CF93DF93EC01EFE5F2E0438162814E
:1017F0008C810E94C30B8C818F5F8C83DF91CF9192
:1018000008950F931F93CF93DF9300D01F92CDB70E
:10181000DEB78C018091740181110AC09E012F5F97
:101820003F4F4FEF6FEF0E94090B8A818093740145
:10183000F8018481813051F028F0823061F44091C8
:1018400074010AC08091740140E007C06091740186
:1018500040E080E003C040E080E060E00E94A80B30
:10186000F801248130E0C901019663E070E00E9434
:10187000352C84830F900F900F90DF91CF911F91A3
:101880000F910895AF92BF92CF92DF92EF92FF92A5
:101890000F931F93CF93DF9300D01F92CDB7DEB786
:1018A000182FF62E042FE22E90915F0290FF6EC04B
:1018B000E92FE695AE2FB0E0A95CBE4F8C918093E6
:1018C00080019E7F923061F49E012F5F3F4F812FF8
:1018D0000E94090B4B8169818A810E94A80B44C038
:1018E000823019F4009162023FC0863019F41091E1
:1018F00060023AC08930D9F38931B1F5E9518E2FB0
:101900008170D82EE695F0E0E65CFC4FA590B4908F
:10191000C12CBB2460910201C61620F5EC2DF0E02D
:10192000EA9DC001EB9D900DFA9D900D112470E091
:101930000E94212C812FD11002C0860F01C0861B6E
:1019400090917701E90FF11D9F01220F331FE20FE4
:10195000F31F9F012C593D4F402F6F2D0E94090B03
:10196000C394D8CF0E94830B10936002F09261025F
:1019700000936202EE2051F060915F02709160026C
:1019800080916102909162020E942E0B0F900F9045
:101990000F90DF91CF911F910F91FF90EF90DF900B
:1019A000CF90BF90AF900895EFE5F2E09181282F9E
:1019B0004381628188E0890F0C94420C81E00C9491
:1019C000D40CEFE5F2E09181282F4381628188EF0A
:1019D000890F0C94420C81E00C94E10CEFE5F2E0ED
:1019E000628128E0620F08F46FEF282F4381818124
:1019F0000C94420C81E00C94EE0CEFE5F2E0628175
:101A000028E0621B08F460E0282F438181810C9458
:101A1000420C81E00C94FD0CEFE5F2E0438128E0FC
:101A2000420F08F44FEF282F628181810C94420C01
:101A300081E00C940C0DEFE5F2E0438128E0421BBD
:101A400008F440E0282F628181810C94420C81E0EF
:101A50000C941B0D20E00C94420CFF920F931F93EB
:101A6000CF93DF93EC01F12C0FEF10E060910201B6
:101A7000F616E8F42091770130E02F0D311DC901F1
:101A8000880F991F280F391F2C593D4F70E0C8014E
:101A90000E94352C962F8C814091620260916102E8
:101AA000F99E800D11240E94090BF394DFCF0E9450
:101AB000830B9A818C8190FF02C08F5F01C081509F
:101AC0008C83DF91CF911F910F91FF900895BF926A
:101AD000CF92DF92EF92FF920F931F93CF93DF93FA
:101AE000FC01828180FF02C00FEF01C001E010E025
:101AF00080910201181708F040C0C12ED12C8091AE
:101B00007701E601C80FD11DCE01880F991FC80FBC
:101B1000D91FCC59DD4F198218821A8234E0E32E86
:101B2000F12CB12C809176018B0D813114F08F70E6
:101B300005C087FF03C090910201890F082E000C99
:101B4000990BC816D90691F4809162028E9DA0016E
:101B50008F9D500D112455954795559547959E019C
:101B600060916102809160020E94090BB00EF1E069
:101B7000EF1AF108B9F61F5FBBCF0E94830B80916B
:101B80007601013031F4811102C08091020181504F
:101B900007C090E001966091020170E00E94352C30
:101BA00080937601DF91CF911F910F91FF90EF907D
:101BB000DF90CF90BF900895CF938091770190915F
:101BC0000301891770F4E82FF0E09F01220F331F03
:101BD000E20FF31FEC59FD4F1182108212828F5FCA
:101BE000F0CFC0E060910201C617B8F5EC2FF0E02D
:101BF00070E0CF010E94352C40917701480F809111
:101C00007501082E000C990B50E0E817F907C4F095
:101C100020910101022E000C330B2E173F0784F098
:101C20009A01220F331F240F351F2C593D4F40912D
:101C3000620260916102809160020E94090B0BC0F8
:101C4000FA01EE0FFF1F4E0F5F1FFA01EC59FD4F17
:101C5000118210821282CF5FC5CF0E94830B209128
:101C6000000180917501820F8093750190910101AF
:101C7000920F9093010119165CF4082E000C990B39
:101C80004091020150E041505109841795071CF022
:101C9000219520930001CF9108950F931F93CF9327
:101CA000DF938C01FC0184819581019681709927D5
:101CB00095838483C0E0D5E580910201C817F8F4CC
:101CC0002091770130E02C0F311DC901880F991F39
:101CD000280F391F2C593D4F4C2F4695F801848110
:101CE0009581840F911D8170409162026091610223
:101CF0008D9F802D11240E94090BCF5FDDCFDF91D6
:101D0000CF911F910F910C94830B0F931F93CF933F
:101D1000DF93EC0100E010E080910201282F30E019
:101D20000217130724F5909177019801290F311DAF
:101D3000A901440F551F240F351F2C593D4F86957F
:101D400090E04C81081719071CF4442331F002C0BD
:101D5000411103C04091620201C040E06091610204
:101D6000809160020E94090B0F5F1F4FD5CF0E9428
:101D7000830B2C8130E02F5F3F4F217033272C8362
:101D8000DF91CF911F910F910895EFE5F2E08081EF
:101D90008E7F808360817181828193810E942E0B6E
:101DA000109281012FEF80E792E021508040904017
:101DB000E1F700C000000C94830BEFE5F2E08081B6
:101DC0008E7F8083109281012FEF80E792E0215077
:101DD00080409040E1F700C000000C94830B6091BC
:101DE0005F02669570E04BE050E085E091E00E9474
:101DF0008B2C892B19F481E0809381010E94BE20F5
:101E000090937A0180937901089590915F0290FFF9
:101E100035C09170811102C0926006C0853210F009
:101E2000986402C0880F982B90935F02662351F04C
:101E300060915F02709160028091610290916202F4
:101E40000E942E0B60915F02669570E04BE050E0BF
:101E500085E091E00E948B2C892B19F01092810172
:101E600002C00E94EF0E81E080937C0140916202EB
:101E700060916102809160020C942A0D0895682F90
:101E800090915F02969581E0890F853208F081E09C
:101E90000C94050F81E00C943F0F682F90915F0226
:101EA00096958FEF890F09F484E20C94050F81E079
:101EB0000C944D0F61E00C94050FEFE5F2E080818A
:101EC0008160808386950C945A0F80915F0280FD1B
:101ED0000C94C50E0C945D0F60E00C94050F80917E
:101EE0007F0181112EC00E94D11E811104C00E9469
:101EF000841F0E944A0B0E942A0B60935F0270931A
:101F0000600280936102909362026E7F61F40E948E
:101F10004A0B0E942A0B60935F02709360028093C9
:101F20006102909362020E94170B109281018091CE
:101F30005F0280FF03C086950E946C0F81E0809352
:101F40007F010895EFE5F2E08081816080838695CE
:101F50000C946C0F1092810108950F931F93CF93EF
:101F6000DF9380918101882309F48CC080918001E6
:101F7000E0915F02E695E81BE0937B01823049F433
:101F8000F0E0EA5CFD4FE491CE2FD0E00DED1BE0D8
:101F900049C0863049F4F0E0ED5CFD4FE491CE2F6E
:101FA000D0E001EF1BE03EC0893051F4E695F0E04F
:101FB000E05DFD4FE491CE2FD0E00DE21DE032C098
:101FC0008F3051F4E695F0E0E35DFD4FE491CE2FC4
:101FD000D0E007E61DE026C0853149F4F0E0E65D7B
:101FE000FD4FE491CE2FD0E00CED1DE01BC08831F9
:101FF00081F0833239F4E8E2F2E0C591D49101E056
:102000001CE010C0843251F4C4EFD1E005E81EE0BA
:1020100009C0C8EED3E00DE41EE004C0C0EDD7E077
:1020200008E01BE080917C01882389F010927C01FC
:102030000E94BE209E0120953095820F931F9093A1
:102040007A018093790110927E0110927D01809136
:10205000790190917A010E94CA208C179D0790F017
:10206000E0917901F0917A01CE0FDF1FD0937A01D0
:10207000C093790189E791E0F801DF91CF911F9139
:102080000F910994DF91CF911F910F9108950E94B4
:10209000D11E811102C00E94841F0E940C1F8093D8
:1020A0009402282F26952695269530E02630310576
:1020B00024F087708862809394028091940280FF5C
:1020C00004C086958695869501C080E00C943211F7
:1020D00020919402822F869586958695482F50E010
:1020E0004530510554F48F5F982F990F990F990F30
:1020F000822F8770892B8093940280919402816053
:10210000809394020E94101F809194028695869578
:1021100086950C94321180919402982F96959695FD
:102120009695A1F0915E990F990F990F8770892B61
:1021300080939402887F91E009F490E0809194026A
:1021400090FB80F9809394020E94101F809194026A
:102150008695869586950C9432118091940280FD27
:1021600013C0816080939402813019F489E08093D8
:102170009402809194020E94101F8091940286958F
:10218000869586950C94321108958091940280FF73
:1021900008C08E7F809394020E94101F80E00C94F0
:1021A000321108958091940280FD0C94C5100C9416
:1021B000AD1090919402892F8695869586958F5FB4
:1021C0008F719770863038F4880F880F880F892BAD
:1021D0008093940202C09093940280919402887F2D
:1021E00091E009F490E08091940290FB80F9809353
:1021F00094020E94101F8091940286958695869580
:102200000C943211863008F085E0880F880F880F13
:10221000909194029770892B80939402887F91E02B
:1022200009F490E08091940290FB80F980939402ED
:102230000E94101F809194028695869586950C9435
:102240003211E82FE295EF70F0E032A1282F2F70C5
:1022500081E090E001C0880F2A95EAF780958323FA
:1022600082A30895CF92DF92EF92FF92863030F4EE
:10227000811105C0909180009F7D04C085E0909100
:102280008000906290938000282F30E0AFEFBFEF86
:102290000E94712C25E030E040E050E00E94492C83
:1022A0002C3784E138074105510530F4C90169E054
:1022B00070E00E94212C29C0DA01C9018A50974D93
:1022C000AF4FBF4F6627782F892F9A2F25EF38E21F
:1022D00041E050E00E94492C69017A01CA01B9012C
:1022E0000E94112C9B01AC01C701B6010E94112C68
:1022F000BB27A92F982F872F009721E0A207B105B0
:1023000011F0BC0102C06FEF7FEF70938B00609300
:102310008A00FF90EF90DF90CF9008950895269A5D
:1023200086E30E94211182E28093800089E18093FC
:1023300081008FEF9FEF90938700809386000C942D
:1023400047102EB1342F309523233EB1432B3FB796
:10235000F894FC01680F791FE617F70789F081915F
:1023600098E04EB9000000C087FF2EB9880F00002A
:1023700000C000C000C02EB900C09A9591F7ECCF04
:102380003FBF08952DB1242B2DB99B01220F331F80
:10239000620F731F0E94A11187EC90E00197F1F783
:1023A00000C00000089544E00C94C2110F931F93E5
:1023B000CF93DF93C62FD42F022FFC018281882375
:1023C000C9F0609384010E94BE20909383018093A2
:1023D000820180E28C0F883008F050C0C77081E025
:1023E00001C0880FCA95EAF7DF91CF911F910F9135
:1023F0000C94961510918401161330C080918201BF
:10240000909183010E94CA20883C910538F5C0E272
:10241000CD0F1D17B9F080E2810F883040F417709E
:1024200081E001C0880F1A95EAF70E949D15C83017
:1024300048F481E09D2F977001C0880F9A95EAF7C4
:102440000E949615802F0E948315C830B8F4D7706B
:1024500081E001C0880FDA95EAF70AC080E28C0FAC
:10246000883060F4C77081E001C0880FCA95EAF730
:10247000DF91CF911F910F910C949D15DF91CF911A
:102480001F910F9108959C01CB01233F4CE5340728
:10249000F9F078F4283DFCE53F07B9F0293D4CE51B
:1024A000340711F1273D3C4531F526E241EE61EE5E
:1024B0001EC0253FFCE53F0799F070F0263F3C45E4
:1024C000D1F427E245EE66EE12C027E245EE0EC0DB
:1024D00026E241EE60EE0BC027E245EE64EE07C057
:1024E00026E241EE62EE03C028E241E065EE0E9482
:1024F000D61180E00895FC018281882319F01092A2
:102500008401089581E0089590938A018093890160
:102510000895E0918901F0918A01309721F00190AE
:10252000F081E02D099480E00895E0918901F09117
:102530008A01309799F020912201222359F02091AD
:102540009B0227FF07C0DC012C9111962C93119759
:1025500025E02C930280F381E02D09940895E09109
:102560008901F0918A01309739F022E0DC012C9347
:102570000480F581E02D0994089520918701309120
:1025800088018217930771F09093880180938701E7
:10259000E0918901F0918A01309721F00680F7815E
:1025A000E02D0994089520918501309186018217CC
:1025B000930771F09093860180938501E0918901E2
:1025C000F0918A01309721F00084F185E02D099483
:1025D000089585B7806885BF85B7806885BF0895F1
:1025E000089508950C94F11208950C94F4120E9429
:1025F000E9120E94F0120C94F21281E008950E94F8
:10260000B5200E9457090E948A210E9447100E940B
:102610006F0F0C94F5124F925F927F928F929F9260
:10262000AF92BF92CF92DF92EF92FF920F931F93E0
:10263000CF93DF93CDB7DEB72A970FB6F894DEBFFE
:102640000FBECDBF0E94A2090E94FD12811111C0D0
:102650008FEF89838A831B820E94BE208160782F3E
:102660009D838C8349815A816B818D810E94C9131E
:1026700057C09CE8C92E91E0D92E00E010E0AA24B2
:10268000A394B12C702E802F0E944D094C01F601AD
:10269000419051906F01482659264114510431F45C
:1026A0000F5F1F4F0530110569F7D2CF80912E02C1
:1026B00081FD0E94560920E030E07501022E02C023
:1026C000EE0CFF1C0A94E2F7C70184219521892BA7
:1026D00009F12E837F828E209F2091E0892809F4C2
:1026E00090E098870E94BE208160782F9A87898722
:1026F0004E815F8168858A850E94C913000F111F72
:10270000F801E457FE4F80819181E826F926F18295
:10271000E08206C02F5F3F4F2F30310571F6C0CFEA
:102720000E943E2410918B010E9489121817D9F043
:102730000E94891280938B012A960FB6F894DEBF0F
:102740000FBECDBFDF91CF911F910F91FF90EF9002
:10275000DF90CF90BF90AF909F908F907F905F90D1
:102760004F900C9484032A960FB6F894DEBF0FBEE8
:10277000CDBFDF91CF911F910F91FF90EF90DF9030
:10278000CF90BF90AF909F908F907F905F904F9031
:102790000895CF93DF93CDB7DEB72B970FB6F8949C
:1027A000DEBF0FBECDBF4F83588769877A878B877F
:1027B000DE01119686E0FD0111928A95E9F785E028
:1027C000FE01379601900D928A95E1F749815A8171
:1027D0006B817C818D819E810E94161B2B960FB68A
:1027E000F894DEBF0FBECDBFDF91CF910895FC01FD
:1027F000808191810E94E21D0895882309F41AC105
:102800008238C1F40E94891281FD14C169E380916C
:102810001001909111010E94F01F0E946D1E2FEF78
:1028200081EE94E0215080409040E1F700C000002C
:1028300069E319C08338F9F40E94891280FDFAC057
:1028400063E580911001909111010E94F01F0E9498
:102850006D1E2FEF81EE94E0215080409040E1F713
:1028600000C0000063E580911001909111010E9469
:10287000FB1F0C946D1E8438C1F40E94891282FDE6
:10288000D9C067E480911001909111010E94F01F5E
:102890000E946D1E2FEF81EE94E021508040904009
:1028A000E1F700C0000067E4DECF9CEF980F913A9B
:1028B00040F4682F80911001909111010E94F01F47
:1028C000D8CF90E2980F983050F4877091E001C013
:1028D000990F8A95EAF7892F0E94241ECACF9BE59B
:1028E000980F933070F4853A29F0863A31F083E8F6
:1028F00090E005C081E890E002C082E890E00C948E
:10290000BD1298E5980F973108F08EC0883A09F407
:1029100045C0893A09F445C08A3A09F445C08B3A62
:1029200009F445C08C3A09F445C08B3B09F445C015
:102930008C3B09F445C08D3A09F445C0803B09F44D
:1029400045C08E3A09F445C08F3A09F445C0813B31
:1029500009F445C0823B09F445C0833B09F445C0F6
:10296000843B09F445C0853B09F445C0863B09F426
:1029700045C0873B09F445C0883B09F445C0893B05
:1029800009F445C08D3B09F445C08E3B09F445C0B0
:102990008A3B09F445C080E090E044C082EE90E0BC
:1029A00041C089EE90E03EC08AEE90E03BC085EBEE
:1029B00090E038C086EB90E035C083EB90E032C009
:1029C00084EB90E02FC087EB90E02CC08CEC90E083
:1029D00029C08DEC90E026C083E891E023C08AE80E
:1029E00091E020C082E991E01DC084E991E01AC025
:1029F00081E292E017C083E292E014C084E292E0A8
:102A000011C085E292E00EC086E292E00BC087E240
:102A100092E008C08FE690E005C080E790E002C039
:102A20008AE292E00C94D312803F20F00E94462369
:102A30000C9433240895882309F464C0823879F40F
:102A40000E94891281FF5EC069E38091100190911C
:102A500011010E94F01F0E946D1E69E310C08338AF
:102A6000B1F40E94891280FF4DC063E5809110018E
:102A7000909111010E94F01F0E946D1E63E58091EC
:102A80001001909111010E94FB1F0C946D1E84385F
:102A900079F40E94891282FF35C067E480911001A9
:102AA000909111010E94F01F0E946D1E67E4E7CF14
:102AB0009CEF980F913A10F4682FE1CF90E2980FB5
:102AC000983050F4877091E001C0990F8A95EAF729
:102AD000892F0E942A1ED9CF9BE5980F933020F4AE
:102AE00080E090E00C94BD1298E5980F973120F4A7
:102AF00080E090E00C94D312803F20F00E94AE233F
:102B00000C9433240895CF93C82F0E94FD13C9332A
:102B100049F42FEF87EE93E0215080409040E1F799
:102B200000C000008C2FCF910C941B15882321F03E
:102B30000E94241E0C946D1E0895882321F00E948B
:102B40002A1E0C946D1E0895BF92CF92DF92EF92D1
:102B5000FF920F931F93CF93DF937C01062FC72F14
:102B6000FC01158112951F70D281D1110E94411E66
:102B70000E941A1E882379F0DD2369F080E2800F1D
:102B8000883048F082E00E94B81E0E941A1E91E030
:102B9000B82EB92601C0B12CCC2EC2948FE0C82229
:102BA000D12CF601EA5AFF4F0C946B2C8C2F807FAE
:102BB000CF70882311F0C295C07FDD2399F0CC231C
:102BC00009F4CFC180E2800F883010F0011104C0F9
:102BD0008C2F0E94241E03C08C2F0E94341E0E9442
:102BE0006D1EBFC1802F0E941B15CC2309F402C2A9
:102BF00080E2800F883010F0011104C08C2F0E94F9
:102C00002A1E03C08C2F0E943A1E0E946D1EF2C124
:102C10008C2F807FCF70803211F0C295C07F00234F
:102C200019F00130C9F022C0DD2371F0112341F009
:102C3000113031F40E94541E8C2B0E945A1EDAC1AE
:102C40000E94541E8C2B1DC0112319F0113009F461
:102C5000D1C10E94631E25C0DD2321F0163008F08B
:102C6000C9C10EC0153008F0C5C11BC0DD2361F01D
:102C7000112331F0F701858180FF73C18F70858347
:102C80008C2F0E949615B6C1112359F0093309F013
:102C900079C1FFEF27EE83E0F15020408040E1F75B
:102CA0006FC18C2F0E949D15A5C18C2F869586958E
:102CB000837090E0009719F0019761F09BC1DD23CC
:102CC00021F0802F9C2F937002C080E090E00E9442
:102CD000BD129BC1DD2321F0802F9C2F937002C079
:102CE00080E090E00E94D31290C1DD23F9F0053F0F
:102CF00051F0063F71F0043FA9F480919502909144
:102D0000960281600BC0809195029091960282603C
:102D100005C08091950290919602846090939602EE
:102D200080939502802F0E9446231EC0053F51F0DC
:102D3000063F71F0043FA9F48091950290919602AC
:102D40008E7F0BC080919502909196028D7F05C079
:102D500080919502909196028B7F9093960280933A
:102D60009502802F0E94AE230E9433244EC18C2FE7
:102D7000837009F049C0D11144C1402F4295469556
:102D80004770440F440F602F6F70862F90E0A0E0D3
:102D9000B0E0042E04C0880F991FAA1FBB1F0A941D
:102DA000D2F704FF10C00FE010E020E030E004C0D4
:102DB000000F111F221F331F4A95D2F7009510955F
:102DC0002095309503C000E010E09801C695C695A7
:102DD000C370D0E0BC01CD01602B712B822B932BF3
:102DE000C230D10559F0C330D10559F0219719F0FF
:102DF0000E945B1C06C10E94491C03C10E946D1CFD
:102E000000C10E94471CFDC0DD2319F08C2F81708A
:102E100001C08695882309F4F4C0402F4295469559
:102E20004770440F440F602F6F70862F90E0A0E032
:102E3000B0E0042E04C0880F991FAA1FBB1F0A947C
:102E4000D2F704FF10C00FE010E020E030E004C033
:102E5000000F111F221F331F4A95D2F700951095BE
:102E60002095309503C000E010E09801C695C69506
:102E7000C370D0E0BC01CD01602B712B822B932B52
:102E8000C230D10559F0C330D10559F0219719F05E
:102E90000E94211DB6C00E940F1DB3C00E94331DA9
:102EA000B0C00E94821CADC0CF70DD2339F08C2FE2
:102EB0000E94A81C802F0E949615A3C0802F0E94FC
:102EC0009D158C2F0E94C91C9CC0023F01F128F463
:102ED000003F41F0013FA1F040C0033FF9F0043F43
:102EE00039F13BC0DD2341F0153008F083C08C2F51
:102EF0008F710E94EE1C7EC0163008F07BC0F7CFA9
:102F0000DD2339F08C2F8F710E94A81C73C0DD2344
:102F1000C9F38C2F8F710E94C91C6CC0DD2329F06E
:102F20008C2F8F710E94931C65C00E948E1C62C002
:102F3000DD2349F0CF718C2F0E94A81C63E08C2FF9
:102F40000E94A31E57C081E00E94B81E123008F4F0
:102F500051C082E00E94B81E4DC0DD2331F0112324
:102F600089F2802F0E94FD1345C0112391F209338D
:102F700049F49FEFE7EEF3E09150E040F040E1F7D5
:102F800000C00000802F0E941B1534C04C2F4F70D2
:102F9000602FC7010E9465060E94BA1B36C0D1117E
:102FA00034C0CF70D0E0C230D10599F03CF4209706
:102FB00069F02197F9F40E948B1027C0C430D10525
:102FC00071F054F02597B1F480E00AC00E946810B7
:102FD0001CC00E94D21019C00E94D91016C085E0F2
:102FE0000E94021112C04C2F4F70602FC7010E9427
:102FF00068060BC028E0C21AD10884E0C816D104C4
:1030000020F40E9489120E948403BB20D1F00E9408
:10301000161E80FD16C0F70112820E94101E0E942B
:10302000A81CC7010E942B180E94101EDF91CF918F
:103030001F910F91FF90EF90DF90CF90BF900C9475
:10304000C91CDF91CF911F910F91FF90EF90DF90FE
:10305000CF90BF9008950F931F93CF93DF93EC0110
:10306000888199812B813C81232BB9F09F3F11F4FA
:103070008F3F99F0CE010E949D03882371F06881F3
:1030800079818A810E94ED1D8C010E94451D0E945C
:10309000461CB801CE010E94A415DF91CF911F916B
:1030A0000F9108950E94411E0E94511E0E946D1EA4
:1030B0000E94D9240E94332480E090E00E94BD1237
:1030C00080E090E00C94D312809110019091110156
:1030D0000E9406200C9452180E94311E0C94641811
:1030E000E92FE295EF70F0E03297EE30F105B0F4A1
:1030F000EA59FF4F0C946B2C803F91F018F4883EF6
:1031000068F40EC0843F51F40BC0883E48F0813F04
:1031100029F406C093FB882780F9089580E008957C
:1031200081E008950E94E21D0E9470180895CF93D7
:10313000DF9300D000D01F92CDB7DEB70F900F9075
:103140000F900F900F90DF91CF910895CF93DF9361
:1031500000D000D000D0CDB7DEB726960FB6F894D9
:10316000DEBF0FBECDBFDF91CF9108951F93CF93E8
:10317000DF93C091970116E080919801C81799F0EC
:10318000D0E01C9FF0011D9FF00D1124E756FE4F6B
:103190004081518162817381848195810E94A6184A
:1031A0002196C770E9CFDF91CF911F91089540918B
:1031B000C9015091CA016091CB017091CC018091FD
:1031C000CD019091CE010C94A6188091CE018295EC
:1031D0008F7009F054C08091CB01882309F44FC04F
:1031E00080919701A09198016091C9017091CA01E5
:1031F0004091CC015091CD01B6E08A1709F43FC04F
:1032000090E041155105C1F17F3F11F46F3FA1F1ED
:10321000B89FF001B99FF00D1124E756FE4F2181B0
:1032200072132AC02081621327C02281211124C079
:10323000238134812417350710F421503109241BD0
:10324000350B283C3105C0F42091CE012F70206150
:103250002093CE0126E0289FF001299FF00D112434
:10326000E256FE4F80818F708061808389EC91E00F
:103270000E942B180C94B61801968770BECF089543
:10328000CF92DF92EF92FF920F931F93CF93DF9332
:10329000CDB7DEB762970FB6F894DEBF0FBECDBFD5
:1032A0008C0185E0F801DE011D9601900D928A9552
:1032B000E1F7D8014C9111965C91119712966C919F
:1032C00012971396CD90DC9014973091C9017091AC
:1032D000CA018091CC019091CD01009709F46BC196
:1032E0007F3F19F43F3F09F466C1E090CB01EE2027
:1032F00009F4C0C02091CE01C816D90628F0F60105
:10330000E81BF90BCF0104C0809590958C0D9D1D95
:10331000FF24F394883C910578F0F12C207F09F08C
:10332000C6C07C2DD98AC88A89890E94971889ECE1
:1033300091E00E942B18B1C0822F807F09F046C017
:10334000751314C0341312C0611110C02F702061A6
:103350002093CE010E94D71889EC91E00E942B188F
:103360008091CE01D80115968C932EC0CD2819F1ED
:103370005F3F11F44F3FF9F0F62E61111CC08091B0
:1033800097012091980136E0821709F45AC090E025
:10339000389FF001399FF00D1124E756FE4F7181DF
:1033A000571306C07081471303C07281711103C0A7
:1033B00001968770E9CFF62E662309F427C1809124
:1033C000CE0181608093CE01F12C20C1751308C01D
:1033D000341306C0611104C08091CE01D801C3C06E
:1033E0004D875E878D859E856A8B0E9492186A89BB
:1033F0008823E1F16623D1F12091CE01822F8295BD
:103400008F7090E0029774F08091C9019091CA0189
:1034100098878F831986DB86CA862C87CE0107960C
:103420000E942B1886E0F801A9ECB1E001900D9202
:103430008A95E1F70E94E5180E94D718FF24F394BB
:10344000E5C04D875E878D859E850E94E21D292FF0
:1034500022952F7030E0223031050CF0CBC09F70E8
:1034600009F0C5C0805E883008F4D0C0C8010E9451
:103470002B18E4CFC816D90608F453C0F601E81B90
:10348000F90BCF01883C910508F450C0F12C7C2D3C
:10349000D98AC88A89890E949718E9ECF1E086E008
:1034A000DF011D928A95E9F70E94D718AFC0751306
:1034B00014C0341312C0611110C08091CE01F80104
:1034C0008583C8010E942B1886E0E9ECF1E0DF015A
:1034D0001D928A95E9F7FE2C99C04D875E878D85F0
:1034E0009E856A8B0E9492186A89882309F4BECF50
:1034F000662309F4BBCF2091CE01822F82958F7075
:1035000090E002970CF48ECF8091C9019091CA018E
:103510009A8389831B82DD82CC822E83CE01019621
:103520007FCF809590958C0D9D1DACCFF62E662398
:1035300009F49CCF75132EC034132CC02091CE01FA
:1035400020FD1FC0822F82958F70D9F0D80115966B
:103550002C9315978F3049F08F5F982F9295907F1D
:10356000822F8F70892B15968C93C8010E942B187F
:1035700086E0F801A9ECB1E001900D928A95E1F79F
:1035800093CF86E0F801A9ECB1E001900D928A9505
:10359000E1F73CC04D875E878D859E850E9492181D
:1035A000811140CF8091CE0181608093CE01C8010E
:1035B0000E942B182BC0662309F458CF4D875E87D5
:1035C0008D859E850E949218F82E882309F44ECF8F
:1035D00086E0F801A9ECB1E001900D928A95E1F73F
:1035E00089EC91E00E94F7130E94E5185DCF8111EC
:1035F00039CF0CC0243031050CF038CF9F7009F45E
:1036000031CFF8019581907F09F02CCF8F2D6296F4
:103610000FB6F894DEBF0FBECDBFDF91CF911F91E3
:103620000F91FF90EF90DF90CF9008951F93CF936D
:10363000DF93CDB7DEB72C970FB6F894DEBF0FBE81
:10364000CDBF4F83588769877A878B879C87CE0148
:1036500007960E944019882369F08F8198852A85F2
:103660003B85232BF1F19F3F09F063C08F3F09F0A9
:1036700060C037C086E0FE013796DE0111960190EA
:103680000D928A95E1F76F817885EA85FB85309701
:1036900041F17F3F11F46F3F21F12091980130E01B
:1036A000C9010196877099274091970150E08417CE
:1036B000950709F447C069837A83FD83EC8396E01C
:1036C000929FD001939FB00D1124A756BE4FFE01CB
:1036D000319601900D929A95E1F7809398010E949E
:1036E000B61816E080919701909198018917C1F161
:1036F000189FC001112487569E4F0E9440198823AD
:1037000079F1E09197011E9FF0011124E756FE4FD9
:103710004081518162817381848195810E94A618C4
:103720008091970190E00196877099278093970187
:10373000D9CF4F81588569857A858B859C850E9474
:10374000A618CFCF0E946C18109298011092970182
:10375000E9ECF1E086E0DF011D928A95E9F7C1CF3F
:103760002C960FB6F894DEBF0FBECDBFDF91CF9180
:103770001F910895EF92FF920F931F93CF93DF93C2
:103780008C01892B09F46CC0F12CEE24E394E80140
:103790002196F8018491843740F4843008F051C0B8
:1037A000813081F0823019F15BC0853709F444C063
:1037B000A8F19CE7980F903708F052C08F770E94CD
:1037C0001B1541C00E5F1F4FFE01C49180E28C0F9C
:1037D000883048F4C7708E2D01C0880FCA95EAF76B
:1037E0000E94441E14C08C2F0E94FD132DC00E5F3A
:1037F0001F4FFE01C49180E28C0F883058F4C770CF
:103800008E2D01C0880FCA95EAF70E944A1E0E94B9
:103810006D1E1AC08C2F0E941B1516C00E5F1F4F05
:10382000FE01C491CC2381F08FE99FE00197F1F76D
:1038300000C00000C150F6CF0E5F1F4FFE01F49094
:1038400003C00E94FD138E018F2D882309F49FCFA2
:10385000EFE9FFE03197F1F700C000008150F5CFAC
:10386000DF91CF911F910F91FF90EF9008950895F0
:103870000C94371C0E94381C60930502709306025A
:1038800080930702909308020C94521808950C94A8
:103890003A1C0F931F93009105021091060220918C
:1038A000070230910802602B712B822B932B1F9102
:1038B0000F910C943A1C0F931F93009105021091E5
:1038C00006022091070230910802602371238223AF
:1038D00093231F910F910C943A1C0F931F93009107
:1038E000050210910602209107023091080260271C
:1038F0007127822793271F910F910C943A1C0895EA
:103900000C947F1C0E94801C609301027093020241
:1039100080930302909304020C94521860E070E0CC
:10392000CB010C94821C0F931F9341E050E060E0A8
:1039300070E08A019B0104C0000F111F221F331F7A
:103940008A95D2F7C901B8011F910F910C94821C7E
:103950000F931F9341E050E060E070E004C0440F1B
:10396000551F661F771F8A95D2F7809101029091AB
:103970000202A0910302B09104028A019B01082B6C
:10398000192B2A2B3B2BC901B8011F910F910C94C5
:10399000821C0F931F9341E050E060E070E004C090
:1039A000440F551F661F771F8A95D2F74095509593
:1039B000609570958091010290910202A09103029E
:1039C000B09104028A019B01082319232A233B2377
:1039D000C901B8011F910F910C94821C0F931F9382
:1039E00041E050E060E070E004C0440F551F661FE6
:1039F000771F8A95D2F78091010290910202A091DF
:103A00000302B09104028A019B01082719272A2783
:103A10003B27C901B8011F910F910C94821C0F9391
:103A20001F93009101021091020220910302309134
:103A30000402602B712B822B932B1F910F910C94FE
:103A4000821C0F931F93009101021091020220919A
:103A500003023091040260237123822393231F9178
:103A60000F910C94821C0F931F93009101021091EF
:103A700002022091030230910402602771278227FD
:103A800093271F910F910C94821C08952FE0929F11
:103A9000800D1124A82FA695A695A695877051E0B4
:103AA00001C0550F8A95EAF785E0A89FD00111243F
:103AB00020E030E070E0F901EA0FFB1FE153FE4F18
:103AC0004081CB01022E02C0969587950A94E2F7B9
:103AD00081709927819584278523842780832F5F90
:103AE0003F4F2530310539F708952FE0929F800D23
:103AF0001124682F669566956695982F977085E0D6
:103B0000689FB001112440E050E080E0FA01E60F28
:103B1000F71FE153FE4F208130E0092E02C0369599
:103B200027950A94E2F721703327042E01C0220F53
:103B30000A94EAF7822B4F5F5F4F4530510531F70A
:103B40000895BF92CF92DF92EF92FF920F931F934F
:103B5000CF93DF938C01C0900502D0900602E090D5
:103B60000702F09008028091010290910202A09158
:103B70000302B0910402C82AD92AEA2AFB2ACFE11B
:103B8000D0E0D701C6010C2E04C0B695A795979535
:103B900087950A94D2F780FF07C0BC2EB8018C2FFE
:103BA0000E948306019719F4219758F7B12C8B2DA9
:103BB000DF91CF911F910F91FF90EF90DF90CF9009
:103BC000BF900895CF93DF93EC010E94A11DBE0129
:103BD0000E948306DF91CF9108951F93CF93DF93C7
:103BE000EB0190919601992321F0CB010E94E21DF7
:103BF00013C0882349F0CB010E94A11D182F682F04
:103C0000CE010E94461D04C0CB010E94751D182FD5
:103C1000BE01812F0E948306DF91CF911F910895ED
:103C20008091090285958595859508958091090271
:103C30008770089590910902977081E009F480E0FF
:103C4000089580912D02089590912D02892B8093E3
:103C50002D020895809590912D02892380932D0245
:103C6000089510922D02089590912C02892B809333
:103C70002C020895809590912C02892380932C0228
:103C8000089510922C02089590912B02892B809315
:103C90002B020895809590912B02892380932B020B
:103CA000089510922B02089580910A0208950895B4
:103CB0000C94571E90910A02981721F080930A02E3
:103CC0000C94581E089580910A02882329F01092BE
:103CD0000A0280E00C94581E0895E0911001F091C2
:103CE000110180912D028083E0911001F09111016A
:103CF000908180912C02892B8083E0911001F091BA
:103D00001101908180912B02892B808380910A027E
:103D1000882381F0E0911001F09111019081892BAD
:103D2000808380911001909111010E948B1F81115D
:103D30000E94631E80911001909111010C949512C4
:103D400008950C94A01E98E0899F90011124262BC1
:103D5000209309020E94A81C8091090285958595EF
:103D600085950C94A11E1092090280E00C94A11E6E
:103D7000209109028095822380930902982F9770E1
:103D800079F430E0482F082E000C550B2417350726
:103D900039F08595859585950E94C91C0C94B31EB4
:103DA000089580E090E00E94A62C21E08C3E9E4F7A
:103DB00009F020E0822F089582E090E00C94982C86
:103DC000682F82E090E00C94AC2C83E090E00C949F
:103DD000982C682F83E090E00C94AC2CCF9384E077
:103DE00090E00E94982CC82F81E290E00E94982CCD
:103DF0002C2F30E0A901582BCA01CF910895CF9301
:103E0000C92F682F84E090E00E94AC2C6C2F81E2D7
:103E100090E0CF910C94AC2C86E090E00C94982C20
:103E2000682F86E090E00C94AC2CAB01BC018FE0D5
:103E300090E00C94BE2CAB01BC0183E190E00C94AB
:103E4000BE2C60E070E0CB010C941B1F60E070E0C2
:103E5000CB010E94151F0C94211F6CEE7EEF80E0B9
:103E600090E00E94CA2C60E082E090E00E94AC2CBE
:103E700060E083E090E00E94AC2C1092050210926A
:103E80000602109207021092080260E084E090E0BF
:103E90000E94AC2C60E081E290E00E94AC2C60E0DB
:103EA00085E090E00E94AC2C60E086E090E00E940B
:103EB000AC2C6FEF87E090E00E94AC2C40E050E02B
:103EC000BA0188E090E00E94BE2C60E08DE090E0B6
:103ED0000E94AC2C40E050E0BA0188E190E00E94E2
:103EE000BE2C60E087E190E00E94AC2C40E050E006
:103EF000BA018CE190E00E94BE2C60E080E290E08C
:103F00000E94AC2C0C94261F0C942D1F682F8EE061
:103F100090E00C94AC2CFC01329680912201882315
:103F200031F080919B0287FF02C09EE101C096E0C4
:103F300080E0915028F021912223D9F38F5FF9CFAF
:103F400008959C01FC0132969FEF80E04191461755
:103F500089F09F3F19F4411101C0982F8F5F86307F
:103F6000A9F79F3F39F0F901E90FF11D97FDFA9587
:103F7000628308950895FC013296089620812613E5
:103F800001C010823196E817F907C1F70895262F6E
:103F90002695269526952E3168F4FC01E20FF11D39
:103FA000677021E030E001C0220F6A95EAF7828154
:103FB000282B22830895262F2695269526952E3187
:103FC00070F4FC01E20FF11D677021E030E001C0E8
:103FD000220F6A95EAF7209582812823228308958B
:103FE00020912201222329F020919B0227FD0C948D
:103FF000C71F0C94A11F20912201222329F0209198
:104000009B0227FD0C94DB1F0C94BB1F2091220107
:10401000FC013296222331F080919B0287FF02C07F
:104020008EE101C086E0DF011D928A95E9F70895CF
:1040300008950C9418200E9419208091A1028430C8
:1040400009F43CC010922F0220E488E190E00FB602
:10405000F894A895809360000FBE2093600080E0E4
:104060000E94321180E00E9484030E94AA0F809176
:10407000300281110AC081E08093300280915F029A
:104080008170809331020E94DD0E0E94192083B757
:10409000817F846083BF83B7816083BF7894889574
:1040A00083B78E7F83BF0FB6F894A8958091600088
:1040B000886180936000109260000FBE089508959B
:1040C0000895CF930E945F200E94A2090E94602061
:1040D000C0E08C2F0E944D09892B29F4CF5FC53099
:1040E000C1F780E001C081E0CF91089508950C945C
:1040F00076200E946C180E9447100E9489120E942C
:104100008403109230028091310281110E94A20F2B
:104110000E94EF0E0C9477201F920F920FB60F9211
:1041200011248F939F93AF93BF9380912F0281119E
:1041300013C08091970290919802A0919902B0913A
:104140009A024196A11DB11D809397029093980207
:10415000A0939902B0939A02BF91AF919F918F91D2
:104160000F900FBE0F901F90189582E084BD93E0D2
:1041700095BD9AEF97BD80936E0008952FB7F89480
:104180008091970290919802A0919902B0919A0221
:104190002FBF0895CF92DF92EF92FF920F931F935C
:1041A0002FB7F8944091970250919802609199022C
:1041B00070919A022FBF6A017B01EE24FF248C01CB
:1041C00020E030E0C016D106E206F30610F44150BC
:1041D00051099A01281B390BC9011F910F91FF90BA
:1041E000EF90DF90CF90089578941F920F920FB6C2
:1041F0000F9211248F939F93AF93BF938091970257
:1042000090919802A0919902B0919A020196A11DF5
:10421000B11D8093970290939802A0939902B09356
:104220009A02BF91AF919F918F910F900FBE0F9007
:104230001F90189581E08093E00080E28093D80081
:104240001092C9008FE19EE40197F1F700C00000D1
:1042500087E090EBDC018093AA029093AB02A093DD
:10426000AC02B093AD029CE088E10FB6F894A8953B
:10427000809360000FBE90936000FFCFAF92BF921B
:10428000CF92DF92EF92FF920F931F93CF93C0E0F4
:10429000CC24C394D12CE82EF12C8C2F0E944D09F4
:1042A0005C0100E010E09601002E02C0220F331FD7
:1042B0000A94E2F72A213B21232B31F40F5F1F4F91
:1042C0000F30110581F70AC0602F7C2F80E00E941B
:1042D0006906E816F90691F781E004C0CF5FC530A2
:1042E000E1F680E0CF911F910F91FF90EF90DF906A
:1042F000CF90BF90AF900895CF93C82F8CE20E94CB
:104300003E21882321F08C2FCF910C943E2180E018
:10431000CF910895CF930E94D11E811102C00E94B7
:10432000841FC5E6C15049F00E94A2098FE39CE9B1
:104330000197F1F700C00000F5CF89E20E947C21CF
:10434000811120C18AE20E947C2181110E94841F78
:1043500085E00E947C2181110E941A210E94DC1EAE
:1043600080932E0287E00E947C218823A9F18BE1B3
:104370000E947C21882351F080912E0281FB22270C
:1043800020F991E0922790FB81F90EC08EE00E9407
:104390007C21882361F080912E0282FB222720F964
:1043A00091E0922790FB82F980932E0215C080E164
:1043B0000E947C2190912E02882341F093FB2227BA
:1043C00020F981E0822780FB93F904C0892F809532
:1043D00080FB90F990932E0280912E020E94E01EA5
:1043E0000E94EE1E90939C0280939B0280EE0E949E
:1043F0007C21882341F080919B02982F909590FB1F
:1044000080F980939B0289E30E947C21882359F0E4
:1044100080919B0281FB222720F991E0922790FB5B
:1044200081F980939B0282EE0E947C21882359F0BF
:1044300080919B0282FB222720F991E0922790FB3A
:1044400082F980939B0286EE0E947C21882359F09A
:1044500080919B0283FB222720F991E0922790FB19
:1044600083F980939B0283EE0E947C21882359F07C
:1044700080919B0284FB222720F991E0922790FBF8
:1044800084F980939B0285E30E947C21882359F064
:1044900080919B0285FB222720F991E0922790FBD7
:1044A00085F980939B0281E30E947C21882359F047
:1044B00080919B0286FB222720F991E0922790FBB6
:1044C00086F980939B0281E10E947C21882359F028
:1044D00080919B0287FB222720F991E0922790FB95
:1044E00087F980939B0280919B0290919C020E948D
:1044F000FF1E87E20E947C21C82F8EE10E947C2152
:104500008111C2608FE10E947C218111C46080E230
:104510000E947C218111C86081E20E947C2181116E
:10452000C06182E20E947C218111C06283E20E940C
:104530007C218111C06484E20E947C21882311F0D7
:10454000C06802C0CC2329F08C2F0E94E91E6C2F7A
:1045500003C00E94E51E682F70E080E090E00E949A
:10456000471C8FE00E947C21882319F081E00E9483
:10457000861F85E10E947C21882321F080E0CF9175
:104580000C94861FCF9108958091350280FF0BC057
:104590006091150185E0689FB001112475956795BC
:1045A000759567952BC081FF09C06091150185E065
:1045B000689FB00111247595679520C082FF07C0E0
:1045C0006091150185E0689FB001112417C090919A
:1045D00034029923D1F060911401961788F7209145
:1045E000150185E0289F90011124929FA001939FBF
:1045F000500D112470E0CA010E94352C60387105FD
:1046000040F46115710539F002C065E070E0862F55
:1046100008958FE7089581E008958091350280FF25
:1046200008C06091130170E0759567957595679561
:1046300021C081FF06C06091130170E075956795F8
:1046400019C082FF04C06091130170E010C0909106
:1046500034029923C1F0609112019617A0F780915E
:104660001301899FC001112470E00E94352C60382D
:10467000710528F46115710521F0862F08958FE7E3
:10468000089581E0089561E070E0F4CF803F21F467
:104690000E94C422819504C0813F29F40E94C42253
:1046A000809339020895823F21F40E94C4228195AB
:1046B00004C0833F29F40E94C422809338020895E5
:1046C000893F19F40E940D2305C08A3F31F40E94EE
:1046D0000D23819580933A0208958B3F21F40E9427
:1046E0000D23819504C08C3F29F40E940D238093F3
:1046F0003B020895843F21F480913702816017C006
:10470000853F21F480913702826011C0863F21F4F9
:104710008091370284600BC0873F21F4809137027B
:10472000886005C0883F31F48091370280618093B2
:10473000370208958D3F21F48091350281600BC0CE
:104740008E3F21F480913502826005C08F3F29F4AD
:10475000809135028460809335020895803F39F45A
:104760008091390287FF6CC01092390269C0813F85
:1047700029F4809139021816BCF362C09091380276
:10478000823F29F497FF5CC01092380259C0833FE2
:1047900019F41916CCF354C0893F41F480913A02C0
:1047A00018160CF04DC010923A024AC08A3F29F404
:1047B00080913A0287FF44C0F6CF8B3F39F4809155
:1047C0003B0287FF3DC010923B023AC08C3F29F468
:1047D00080913B021816BCF333C0843F21F48091D2
:1047E00037028E7F17C0853F21F4809137028D7F7D
:1047F00011C0863F21F4809137028B7F0BC0873F29
:1048000021F480913702877F05C0883F31F4809181
:1048100037028F7E8093370213C08D3F21F4809141
:1048200035028E7F0BC08E3F21F4809135028D7F43
:1048300005C08F3F29F4809135028B7F809335022C
:104840008091380281110EC08091390281110AC015
:1048500080913A02811106C080913B02811102C011
:1048600010923402089586E392E00E94AF120E94F3
:10487000BE20909333028093320208951F93CF930A
:10488000DF9380913202909133020E94CA20AC01E2
:1048900090913402992321F02091160130E006C056
:1048A000209117018AE0289F900111244217530795
:1048B00008F47BC080913802C0913902D0913A024D
:1048C00010913B02811107C0C1116BC0D11169C0A9
:1048D000111167C06AC09F3F19F09F5F9093340227
:1048E000181624F40E94C422809338028091380262
:1048F00087FF05C00E94C4228195809338021C1650
:1049000024F40E94C422809339028091390287FFE7
:1049100005C00E94C42281958093390230913802EB
:104920003323E1F0209139022223C1F045EB340317
:10493000C0011124892F990F990B009709F481E088
:104940008093380235EB2303C0011124892F990F7E
:10495000990B009709F481E0809339021D1624F425
:104960000E940D2380933A0280913A0287FF05C08E
:104970000E940D23819580933A02111624F40E941F
:104980000D2380933B0280913B0287FF05C00E946C
:104990000D23819580933B02DF91CF911F910C9461
:1049A00033249F3F09F099CFA1CFDF91CF911F9181
:1049B0000895E6E3F2E086E0DF011D928A95E9F7CB
:1049C0001092340210923502089580915C0208958D
:1049D0000F931F93CF93DF9300D01F92CDB7DEB715
:1049E0008C010E945827823011F0843021F584E038
:1049F00089831B830A8382E08093E9008FEF909183
:104A0000E800815095FD06C095ED9A95F1F70000FC
:104A10008111F5CF8091E80085FF0DC040E050E0A6
:104A200063E070E0CE0101960E9475278091E80056
:104A30008E778093E8000F900F900F90DF91CF91C9
:104A40001F910F910895CF93DF9300D01F92CDB7A0
:104A5000DEB72091A102243031F523E0298380586C
:104A600091099B838A8382E08093E9008FEF909184
:104A7000E800815095FD06C095ED9A95F1F700008C
:104A80008111F5CF8091E80085FF0DC040E050E036
:104A900063E070E0CE0101960E9475278091E800E6
:104AA0008E778093E8000F900F900F90DF91CF9159
:104AB0000895CF93DF93EC010E945827823011F0C4
:104AC0008430F9F482E08093E9009FEF8091E80060
:104AD000915085FD06C085ED8A95F1F70000911192
:104AE000F5CF8091E80085FF0CC040E050E066E023
:104AF00070E0CE010E9475278091E8008E77809348
:104B0000E800DF91CF910895CF93DF93EC010E94ED
:104B10005827823011F08430D9F580912201882302
:104B200039F080919B0287FF03C060E282E002C0FF
:104B300068E081E08093E9008FEF9091E800815078
:104B400095FD06C095ED9A95F1F700008111F5CF1E
:104B50008091E80085FF1CC080912201811105C071
:104B600040E050E068E070E003C070E040E050E0FA
:104B7000CE010E9475278091E8008E778093E8002F
:104B800080E2FE01ACE3B2E001900D928A95E1F77C
:104B9000DF91CF9108958091A002811109C00E94F8
:104BA0000A290E9467298091E20084608093E200D4
:104BB00008951092A0020895089508950C94792004
:104BC00042E061EC81E00E94842842E261EC82E0F4
:104BD0000C9484288091A302833009F460C030F4DF
:104BE000813071F0823009F499C008958A3009F457
:104BF00085C08B3009F46BC0893009F0A7C020C094
:104C00008091A202813A09F0A1C08091E800877FDB
:104C10008093E8008091A6029091A702892B21F44D
:104C200060E28CE392E003C060E080E090E070E03E
:104C30000E94C0278091E8008B778093E800089558
:104C40008091A202813209F081C08091A6029091E8
:104C5000A702029708F07AC08091E800877F8093CE
:104C6000E8008091E80082FD05C08091A1028111D9
:104C7000F8CF6CC02091F3008091F20090E0922B6D
:104C8000029729F48091F1008B7F813021F480918B
:104C9000F10080935C028091E8008B7753C0809193
:104CA000A202813A09F052C08091A6029091A70217
:104CB000892B09F04BC08091E800877F8093E80042
:104CC0008091E80080FFFCCF8091220136C0809166
:104CD000A2028132D9F58091A6029091A702892B78
:104CE000A9F58091E800877F8093E8000E94B928A9
:104CF0008091A402809322010C946C188091A202EE
:104D0000813221F58091E800877F8093E8000E943E
:104D1000B9288091A50280935D0208958091A20236
:104D2000813AA1F48091E800877F8093E800809128
:104D3000E80080FFFCCF80915D028093F1008091BC
:104D4000E8008E778093E8000C94B928089584B722
:104D5000877F84BF0FB6F894A89580916000886122
:104D600080936000109260000FBE80E88093610025
:104D7000109261000E94F7120E940A290E9467297E
:104D80008091E20084608093E20078940E94F62B88
:104D90000E94FF1288E191E00E9484128091A1029A
:104DA000853069F40E941B2080919F028823B1F313
:104DB0000E946120882391F30E945F27EFCF0E9419
:104DC0000B130E94AD0FEACF0C94E626292F332750
:104DD00023303105C9F064F42130310581F02230EF
:104DE000310509F04CC08BE390E027E634E04BC07E
:104DF0002132310521F12232310589F140C082E1B1
:104E000090E022EA34E03FC099278130910571F0AB
:104E10002CF4892BA1F5E3E6F4E00DC08230910576
:104E200041F0039761F5EFE3F4E005C0E1E5F4E05C
:104E300002C0E5E4F4E0849190E09F0124C0611594
:104E4000710541F061307105D1F489E090E022E90B
:104E500034E019C089E090E029E734E014C061151E
:104E6000710541F06130710551F480EC90E024EB64
:104E700034E009C080E490E024E735E004C080E03D
:104E800090E020E030E0FA01318320830895089516
:104E9000CF93C82F0E944727C0935E02CF910895F9
:104EA0008091A102843011F081E0089582E008959C
:104EB00080915E02811102C00C945027089580E118
:104EC00089BD82E189BD09B400FEFDCF8091D80083
:104ED0008F7D8093D8008091E00082608093E00015
:104EE0008091E00081FDFCCF0895CF92DF92EF9298
:104EF000FF920F931F93CF93DF93EC018B016A0115
:104F00000E94D828811133C0C114D10439F0F601B0
:104F100080819181081B190BC80FD91FE12CF12C3E
:104F20000115110519F18091E80085FD16C08091E9
:104F3000E8008E778093E800C114D10449F0F601AF
:104F400080819181E80EF91EF182E08285E00FC038
:104F50000E94D828882321F30AC089918093F10008
:104F600001501109FFEFEF1AFF0ADACF80E0DF915D
:104F7000CF911F910F91FF90EF90DF90CF90089508
:104F80002091A8023091A9022617370748F0611531
:104F9000710539F42091E8002E772093E80001C0D4
:104FA000B90140E061157105A9F12091A102222308
:104FB00009F443C0253009F442C02091E80023FDE4
:104FC00040C02091E80022FD32C02091E80020FF7F
:104FD000E9CF4091F3002091F20030E0342BFC0146
:104FE000CF016115710559F02830310540F48191E8
:104FF0008093F100615071092F5F3F4FF1CF41E085
:105000002830310509F040E02091E8002E77209308
:10501000E800C8CF4111C9CF0AC08091A1028823FE
:1050200061F0853061F08091E80083FD0AC08091D5
:10503000E80082FFF2CF80E0089582E0089583E0E7
:10504000089581E008952091A8023091A9022617C1
:10505000370748F06115710539F42091E8002E7783
:105060002093E80001C0B901FC0120E06115710541
:1050700091F18091A102882309F440C0853009F4A0
:105080003FC08091E80083FD3DC08091E80082FD33
:105090002FC08091E80080FFE9CF2091F30080913C
:1050A000F20090E0922B6115710559F0883091055E
:1050B00040F424912093F1003196615071090196DA
:1050C000F2CF21E0089709F020E08091E8008E7788
:1050D0008093E800CBCF2111CCCF0AC08091A102F0
:1050E000882361F0853061F08091E80083FD0AC07B
:1050F0008091E80082FFF2CF80E0089582E0089579
:1051000083E0089581E00895982F973058F59093A3
:10511000E900981739F07091EC002091ED00509162
:10512000F00003C0242F762F50E021FF19C03091EA
:10513000EB003E7F3093EB003091ED003D7F3093EC
:10514000ED003091EB0031603093EB007093EC0098
:105150002093ED005093F0002091EE0027FF07C050
:105160009F5FD3CF8F708093E90081E0089580E046
:1051700008958091A20287FF11C08091E80082FD0E
:1051800005C08091A1028111F8CF11C08091E80083
:105190008B770BC08091A102882349F08091E800B1
:1051A00080FFF8CF8091E8008E778093E800089523
:1051B0002091E4003091E50095E64091EC00842FC9
:1051C000817040FF22C08091E80080FD1CC080916A
:1051D000A102882391F0853091F08091EB0085FD4C
:1051E00010C04091E4005091E5004217530729F3A5
:1051F0009A01915011F784E0089582E0089583E0C8
:10520000089581E0089580E008954091E80042FF0C
:10521000DECF08950E9478290E948029E0EEF0E018
:10522000808181608083E8EDF0E080818F778083EA
:1052300019BCA7EDB0E08C918E7F8C9380818F7E1E
:1052400080831092A00208950F931F93CF93DF9352
:105250000E9478290E948029C8EDD0E088818F774C
:10526000888388818068888388818F7D888319BC42
:105270001092A10210929D0210929F0210929E0223
:1052800000EE10E0F80180818B7F8083888181604F
:10529000888342E060E080E00E948428E1EEF0E054
:1052A00080818E7F8083E2EEF0E080818160808368
:1052B000808188608083F80180818E7F80838881EF
:1052C00080618883DF91CF911F910F910895E8ED60
:1052D000F0E080818F7E8083E7EDF0E08081816067
:1052E000808384E082BF81E08093A0020C94242913
:1052F000E8EDF0E080818E7F80831092E2000895D7
:105300001092DA001092E10008951F920F920FB6EA
:105310000F9211242F933F934F935F936F937F933B
:105320008F939F93AF93BF93EF93FF938091E1008F
:1053300082FF0BC08091E20082FF07C08091E100F4
:105340008B7F8093E1000E94F52B8091DA0080FF33
:105350001FC08091D80080FF1BC08091DA008E7F33
:105360008093DA008091D90080FF0DC080E189BD73
:1053700082E189BD09B400FEFDCF81E08093A102E6
:105380000E94CB2505C019BC1092A1020E94D9250C
:105390008091E10080FF19C08091E20080FF15C07C
:1053A0008091E2008E7F8093E2008091E200806134
:1053B0008093E2008091D80080628093D80019BC6D
:1053C00085E08093A1020E94DD258091E10084FFA9
:1053D00030C08091E20084FF2CC080E189BD82E171
:1053E00089BD09B400FEFDCF8091D8008F7D8093E8
:1053F000D8008091E1008F7E8093E1008091E200EF
:105400008F7E8093E2008091E20081608093E200D1
:1054100080919D02882311F084E007C08091E30011
:1054200087FD02C081E001C083E08093A1020E9459
:10543000DE258091E10083FF29C08091E20083FF97
:1054400025C08091E100877F8093E10082E0809316
:10545000A10210929D028091E1008E7F8093E10075
:105460008091E2008E7F8093E2008091E200806173
:105470008093E20042E060E080E00E948428809116
:10548000F00088608093F0000E94DC25FF91EF918E
:10549000BF91AF919F918F917F916F915F914F914C
:1054A0003F912F910F900FBE0F901F9018951F9254
:1054B0000F920FB60F9211242F933F934F935F9348
:1054C0006F937F938F939F93AF93BF93CF93DF930C
:1054D000EF93FF93C091E900CF708091EC00D82F3B
:1054E000D17080FDD0E81092E9008091F000877FB4
:1054F0008093F00078940E949B2A1092E90080919A
:10550000F00088608093F000CD2BCF70C093E9004D
:10551000FF91EF91DF91CF91BF91AF919F918F91CB
:105520007F916F915F914F913F912F910F900FBE9F
:105530000F901F9018951F93CF93DF93CDB7DEB7D1
:10554000AA970FB6F894DEBF0FBECDBFE2EAF2E035
:1055500088E08E0F9091F10091938E13FBCF0E9403
:10556000EA258091E80083FF28C18091A2029091F2
:10557000A302492F50E04A30510508F01EC1FA013C
:10558000EC58FF4F0C946B2C803821F0823809F0D6
:1055900014C108C080919E0290919F02992389F0C6
:1055A00082600FC08091A6028F70873008F005C11D
:1055B0008093E9008091EB0085FB882780F91092A9
:1055C000E9009091E800977F9093E8008093F100C4
:1055D0001092F100D0C0282F2D7F09F0EEC0882353
:1055E00019F0823061F0E9C08091A402813009F0A5
:1055F000E4C0933009F080E080939F022EC0809138
:10560000A40281112AC08091A6028F702FEF280F6B
:10561000263008F0D2C08093E9002091EB0020FFF3
:105620001CC0933021F48091EB00806214C09091F3
:10563000EB0090619093EB0021E030E0A90102C003
:10564000440F551F8A95E2F74093EA001092EA0052
:105650008091EB0088608093EB001092E9008091CC
:10566000E800877F8093E8000E94B928A6C08111D6
:10567000A4C01091A4021F778091E3008078812B51
:105680008093E3008091E800877F8093E8000E9488
:10569000B9288091E80080FFFCCF8091E30080680A
:1056A0008093E300111102C082E001C083E0809387
:1056B000A10283C08058823008F07FC08091A4028C
:1056C0009091A5028C3D53E0950779F583E08A839C
:1056D0008AE289834FB7F894DE01139620E03EE01A
:1056E00051E2E32FF0E050935700E49120FF03C014
:1056F000E295EF703F5FEF708E2F90E0EA3010F090
:10570000C79601C0C0968D939D932F5F243149F7B2
:105710004FBF8091E800877F8093E8006AE270E0E5
:10572000CE0101960E94C02715C06091A60270911B
:10573000A702AE014F5F5F4F0E94E426BC01892B98
:10574000E1F19091E800977F9093E80089819A8138
:105750000E9423288091E8008B778093E8002DC079
:10576000803859F58091E800877F8093E800809128
:105770009D028093F1008091E8008E7773CF8111B4
:105780001CC09091A4029230C0F48091E800877F01
:105790008093E80090939D020E94B92880919D0219
:1057A000811106C08091E30087FD02C081E001C045
:1057B00084E08093A1020E94E0258091E80083FFAD
:1057C0000AC08091E800877F8093E8008091EB0019
:1057D00080628093EB00AA960FB6F894DEBF0FBEEE
:1057E000CDBFDF91CF911F9108950895CF93809100
:1057F000A1028823A1F0C091E900CF709091EC0044
:10580000892F817090FD80E8C82B1092E90080916B
:10581000E80083FD0E949B2ACF70C093E900CF91DE
:105820000895DB018F939F930E94802CBF91AF91CD
:10583000A29F800D911DA39F900DB29F900D1124EA
:105840000895AA1BBB1B51E107C0AA1FBB1FA617C7
:10585000B70710F0A61BB70B881F991F5A95A9F719
:1058600080959095BC01CD01089597FB072E16F405
:10587000009407D077FD09D00E94212C07FC05D0A9
:105880003EF4909581959F4F0895709561957F4F57
:105890000895A1E21A2EAA1BBB1BFD010DC0AA1F71
:1058A000BB1FEE1FFF1FA217B307E407F50720F089
:1058B000A21BB30BE40BF50B661F771F881F991F04
:1058C0001A9469F760957095809590959B01AC014D
:1058D000BD01CF010895EE0FFF1F0590F491E02D5B
:1058E0000994A29FB001B39FC001A39F700D811DB9
:1058F0001124911DB29F700D811D1124911D0895D9
:105900000E94712CA59F900DB49F900DA49F800DB7
:10591000911D11240895FC014150504030F0019038
:105920000616D1F73197CF01089588279927089552
:10593000F999FECF92BD81BDF89A992780B5089557
:10594000A6E1B0E044E050E00C94D22CA8E1B0E035
:1059500042E050E00C94D22C262FF999FECF92BD54
:1059600081BDF89A019700B4021639F01FBA20BD24
:105970000FB6F894FA9AF99A0FBE08950396272F56
:105980000E94AD2C0E94AC2C252F0E94AD2C242F00
:105990000C94AD2C0196272F0E94AD2C0C94AC2CAE
:1059A000DC01CB01FC01F999FECF06C0F2BDE1BDDF
:1059B000F89A319600B40D9241505040B8F70895CE
:0459C000F894FFCF89
:1059C400010210101001191A1B1C1D1E1F20212278
:1059D4000B022808140A321EE524842559252325A0
:1059E400E82401F0F1C66766379431303534979670
:1059F40033F4909192939500010202020206060686
:105A04000909090909090F0F0F0F0F0F15151518AB
:0C5A140019191919191919191919232445
:00000001FF
